:100000000C942A000C943F000C943F000C943F0089
:100010000C943F000C943F000C943F000C943F0064
:100020000C943F000C943F000C943F000C943F0054
:100030000C943F000C943F000C943F000C943F0044
:100040000C943F000C943F000C943F000C943F0034
:100050000C943F0011241FBECFE5D8E0DEBFCDBF1A
:1000600010E0A0E6B0E0E8E7F4E002C005900D92F1
:10007000A236B107D9F70E9441000C943A020C94C1
:1000800000004F925F926F927F928F929F92AF92F9
:10009000BF92CF92DF92EF92FF920F931F93CF9375
:1000A000DF9381B3806381BB84B3836084BB80EAC8
:1000B0008FBD82E18EBD80E29EE497BD86BD8AB190
:1000C00088618AB980B5866880BD8091600089B9F1
:1000D0000F2EF0E0EF2EF0E0FF2EF0E00F2FF0E01B
:1000E0001F2FF02D6DB67EB60894611C711C8DB665
:1000F0009EB688E090E0880E991E38ECA32E34E17D
:10010000B32EC8EED3E020E7C22E28E0D22E94E62C
:10011000492E8AE0582E85B38C7F85BBF3015F9B07
:10012000FECF8CB18193E815F905C9F7EDB7FEB79D
:100130008181813419F4D9BCC8BC09C0803519F457
:10014000D9BDC8BD04C0833511F4B9BCA8BCEDB796
:10015000FEB782818D3459F40F2EFAE9EF2EF9E9BA
:10016000FF2EF9ED0F2FFFE31F2FF02D19C086345E
:1001700059F40F2EF3E3EF2EF3E3FF2EF3EF0F2FDF
:10018000FFE31F2FF02D0CC0883451F40F2EF3E342
:10019000EF2EF3E3FF2EF3EB0F2FFFE31F2FF02DD6
:1001A000EDB7FEB7838190E08C9FB0018D9F700DFD
:1001B0009C9F700D11242481249D90011124620FB5
:1001C000731F2681620F711D2581259D90011124C9
:1001D000620F731F80E090E00E9449019B01AC0117
:1001E000C801B7010E94AF010E941D017BBD6ABD1D
:1001F00092CF81B3806381BB84B3836084BB089555
:1002000080EA8FBD82E18EBD80E29EE497BD86BD0F
:1002100008958AB188618AB980B5866880BD809169
:10022000600089B908955F9BFECF8CB108955D9BF6
:10023000FECF8CB95E9BFECF089570D088F09F579B
:1002400090F0B92F9927B751A0F0D1F0660F771F22
:10025000881F991F1AF0BA95C9F712C0B13081F002
:1002600077D0B1E0089574C0672F782F8827B85FE2
:1002700039F0B93FCCF3869577956795B395D9F763
:100280003EF490958095709561957F4F8F4F9F4F6D
:100290000895E89409C097FB3EF490958095709579
:1002A00061957F4F8F4F9F4F9923A9F0F92F96E9C2
:1002B000BB279395F695879577956795B795F11137
:1002C000F8CFFAF4BB0F11F460FF1BC06F5F7F4FD4
:1002D0008F4F9F4F16C0882311F096E911C07723E6
:1002E00021F09EE8872F762F05C0662371F096E8EF
:1002F000862F70E060E02AF09A95660F771F881FBE
:10030000DAF7880F9695879597F9089557FD9058D5
:10031000440F551F59F05F3F71F04795880F97FBC9
:10032000991F61F09F3F79F0879508951216130683
:100330001406551FF2CF4695F1DF08C016161706B2
:100340001806991FF1CF86957105610508940895E7
:10035000E894BB2766277727CB0197F908950BD040
:1003600078C069D028F06ED018F0952309F05AC0F3
:100370005FC01124EECFCADFA0F3959FD1F3950F94
:1003800050E0551F629FF001729FBB27F00DB11D19
:10039000639FAA27F00DB11DAA1F649F6627B00DA9
:1003A000A11D661F829F2227B00DA11D621F739F92
:1003B000B00DA11D621F839FA00D611D221F749FA0
:1003C0003327A00D611D231F849F600D211D822FE7
:1003D000762F6A2F11249F5750408AF0E1F088232E
:1003E0004AF0EE0FFF1FBB1F661F771F881F91503B
:1003F0005040A9F79E3F510570F014C0AACF5F3F4F
:10040000ECF3983EDCF3869577956795B795F7956D
:10041000E7959F5FC1F7FE2B880F911D96958795F5
:1004200097F9089597F99F6780E870E060E0089574
:100430009FEF80EC089500240A94161617061806FC
:100440000906089500240A941216130614060506D8
:100450000895092E0394000C11F4882352F0BB0F69
:1004600040F4BF2B11F460FF04C06F5F7F4F8F4FCC
:080470009F4F0895F894FFCF9F
:0204780067001B
:00000001FF
