:100000000C942A000C9447000C9447000C94470071
:100010000C9447000C9447000C9447000C94470044
:100020000C9447000C9447000C9447000C94470034
:100030000C9447000C9447000C9447000C94470024
:100040000C9447000C9447000C9447000C94470014
:100050000C94470011241FBECFE5D8E0DEBFCDBF12
:1000600010E0A0E6B0E0E2E2F2E002C005900D92FE
:10007000A236B107D9F710E0A2E6B0E001C01D92A8
:10008000A336B107E1F70E9462000C940F010C94B3
:10009000000080E487B987E886B908958AB188614D
:1000A0008AB980B5866880BD8091600089B908955D
:1000B000369A3699FECF08955D9BFECF8CB95E9B34
:1000C000FECF0895CF92DF92EF92FF920F931F938E
:1000D000CF93DF9380E487B987E886B98AB18861D6
:1000E0008AB980B5866880BD8091600089B931E4A5
:1000F000C32E23E5D22E90E5E92E8DE4F82E08E4F8
:1001000016E43C9A87B18C7F87B9369A3699FECF30
:10011000E4B1F5B1399A87B18E7E87B9369A3699AE
:10012000FECF24B135B187B1836087B93C98369A48
:100130003699FECF84B195B143E02132340718F0EF
:10014000E09262000EC041E02C32340718F4D092E5
:10015000620007C02D523140235F314010F4C0923D
:10016000620023E08132920718F0109363000EC002
:1001700041E08C32940718F40093630007C08D525D
:100180009140835F914010F4F0926300CF0168EEDC
:1001900073E00E94FB0060936400CF0168EE73E09F
:1001A0000E94FB0064E670E00E94FB006093650023
:1001B000CF0164E670E00E94FB006AE070E00E94FC
:1001C000FB0060936600CF016AE070E00E94FB00D4
:1001D00080936700C2E6D0E089910E945C0040E015
:1001E000C936D407C9F780E20E945C008ACF5F9BC2
:1001F000FECF8CB10895AA1BBB1B51E107C0AA1FFB
:10020000BB1FA617B70710F0A61BB70B881F991FB7
:100210005A95A9F780959095BC01CD010895F89461
:02022000FFCF0E
:02022200670073
:00000001FF
